{
  "contractName": "Ballot",
  "abi": [
    {
      "inputs": [],
      "stateMutability": "nonpayable",
      "type": "constructor"
    },
    {
      "anonymous": false,
      "inputs": [
        {
          "indexed": true,
          "internalType": "address",
          "name": "owner",
          "type": "address"
        },
        {
          "indexed": true,
          "internalType": "address",
          "name": "approved",
          "type": "address"
        },
        {
          "indexed": true,
          "internalType": "uint256",
          "name": "tokenId",
          "type": "uint256"
        }
      ],
      "name": "Approval",
      "type": "event"
    },
    {
      "anonymous": false,
      "inputs": [
        {
          "indexed": true,
          "internalType": "address",
          "name": "owner",
          "type": "address"
        },
        {
          "indexed": true,
          "internalType": "address",
          "name": "operator",
          "type": "address"
        },
        {
          "indexed": false,
          "internalType": "bool",
          "name": "approved",
          "type": "bool"
        }
      ],
      "name": "ApprovalForAll",
      "type": "event"
    },
    {
      "anonymous": false,
      "inputs": [
        {
          "indexed": true,
          "internalType": "address",
          "name": "from",
          "type": "address"
        },
        {
          "indexed": true,
          "internalType": "address",
          "name": "to",
          "type": "address"
        },
        {
          "indexed": true,
          "internalType": "uint256",
          "name": "tokenId",
          "type": "uint256"
        }
      ],
      "name": "Transfer",
      "type": "event"
    },
    {
      "inputs": [],
      "name": "GOV",
      "outputs": [
        {
          "internalType": "address",
          "name": "",
          "type": "address"
        }
      ],
      "stateMutability": "view",
      "type": "function",
      "constant": true
    },
    {
      "inputs": [
        {
          "internalType": "address",
          "name": "to",
          "type": "address"
        },
        {
          "internalType": "uint256",
          "name": "tokenId",
          "type": "uint256"
        }
      ],
      "name": "approve",
      "outputs": [],
      "stateMutability": "nonpayable",
      "type": "function"
    },
    {
      "inputs": [
        {
          "internalType": "address",
          "name": "owner",
          "type": "address"
        }
      ],
      "name": "balanceOf",
      "outputs": [
        {
          "internalType": "uint256",
          "name": "",
          "type": "uint256"
        }
      ],
      "stateMutability": "view",
      "type": "function",
      "constant": true
    },
    {
      "inputs": [
        {
          "internalType": "address",
          "name": "",
          "type": "address"
        }
      ],
      "name": "candidateName",
      "outputs": [
        {
          "internalType": "string",
          "name": "",
          "type": "string"
        }
      ],
      "stateMutability": "view",
      "type": "function",
      "constant": true
    },
    {
      "inputs": [
        {
          "internalType": "uint256",
          "name": "",
          "type": "uint256"
        }
      ],
      "name": "candidates",
      "outputs": [
        {
          "internalType": "address",
          "name": "",
          "type": "address"
        }
      ],
      "stateMutability": "view",
      "type": "function",
      "constant": true
    },
    {
      "inputs": [
        {
          "internalType": "uint256",
          "name": "tokenId",
          "type": "uint256"
        }
      ],
      "name": "getApproved",
      "outputs": [
        {
          "internalType": "address",
          "name": "",
          "type": "address"
        }
      ],
      "stateMutability": "view",
      "type": "function",
      "constant": true
    },
    {
      "inputs": [
        {
          "internalType": "address",
          "name": "owner",
          "type": "address"
        },
        {
          "internalType": "address",
          "name": "operator",
          "type": "address"
        }
      ],
      "name": "isApprovedForAll",
      "outputs": [
        {
          "internalType": "bool",
          "name": "",
          "type": "bool"
        }
      ],
      "stateMutability": "view",
      "type": "function",
      "constant": true
    },
    {
      "inputs": [],
      "name": "name",
      "outputs": [
        {
          "internalType": "string",
          "name": "",
          "type": "string"
        }
      ],
      "stateMutability": "view",
      "type": "function",
      "constant": true
    },
    {
      "inputs": [
        {
          "internalType": "uint256",
          "name": "tokenId",
          "type": "uint256"
        }
      ],
      "name": "ownerOf",
      "outputs": [
        {
          "internalType": "address",
          "name": "",
          "type": "address"
        }
      ],
      "stateMutability": "view",
      "type": "function",
      "constant": true
    },
    {
      "inputs": [
        {
          "internalType": "address",
          "name": "from",
          "type": "address"
        },
        {
          "internalType": "address",
          "name": "to",
          "type": "address"
        },
        {
          "internalType": "uint256",
          "name": "tokenId",
          "type": "uint256"
        }
      ],
      "name": "safeTransferFrom",
      "outputs": [],
      "stateMutability": "nonpayable",
      "type": "function"
    },
    {
      "inputs": [
        {
          "internalType": "address",
          "name": "from",
          "type": "address"
        },
        {
          "internalType": "address",
          "name": "to",
          "type": "address"
        },
        {
          "internalType": "uint256",
          "name": "tokenId",
          "type": "uint256"
        },
        {
          "internalType": "bytes",
          "name": "_data",
          "type": "bytes"
        }
      ],
      "name": "safeTransferFrom",
      "outputs": [],
      "stateMutability": "nonpayable",
      "type": "function"
    },
    {
      "inputs": [
        {
          "internalType": "address",
          "name": "operator",
          "type": "address"
        },
        {
          "internalType": "bool",
          "name": "approved",
          "type": "bool"
        }
      ],
      "name": "setApprovalForAll",
      "outputs": [],
      "stateMutability": "nonpayable",
      "type": "function"
    },
    {
      "inputs": [
        {
          "internalType": "bytes4",
          "name": "interfaceId",
          "type": "bytes4"
        }
      ],
      "name": "supportsInterface",
      "outputs": [
        {
          "internalType": "bool",
          "name": "",
          "type": "bool"
        }
      ],
      "stateMutability": "view",
      "type": "function",
      "constant": true
    },
    {
      "inputs": [],
      "name": "symbol",
      "outputs": [
        {
          "internalType": "string",
          "name": "",
          "type": "string"
        }
      ],
      "stateMutability": "view",
      "type": "function",
      "constant": true
    },
    {
      "inputs": [
        {
          "internalType": "uint256",
          "name": "tokenId",
          "type": "uint256"
        }
      ],
      "name": "tokenURI",
      "outputs": [
        {
          "internalType": "string",
          "name": "",
          "type": "string"
        }
      ],
      "stateMutability": "view",
      "type": "function",
      "constant": true
    },
    {
      "inputs": [
        {
          "internalType": "address",
          "name": "from",
          "type": "address"
        },
        {
          "internalType": "address",
          "name": "to",
          "type": "address"
        },
        {
          "internalType": "uint256",
          "name": "tokenId",
          "type": "uint256"
        }
      ],
      "name": "transferFrom",
      "outputs": [],
      "stateMutability": "nonpayable",
      "type": "function"
    },
    {
      "inputs": [
        {
          "internalType": "address",
          "name": "",
          "type": "address"
        }
      ],
      "name": "voterId",
      "outputs": [
        {
          "internalType": "string",
          "name": "",
          "type": "string"
        }
      ],
      "stateMutability": "view",
      "type": "function",
      "constant": true
    },
    {
      "inputs": [
        {
          "internalType": "string",
          "name": "",
          "type": "string"
        }
      ],
      "name": "voterWithRight",
      "outputs": [
        {
          "internalType": "bool",
          "name": "",
          "type": "bool"
        }
      ],
      "stateMutability": "view",
      "type": "function",
      "constant": true
    },
    {
      "inputs": [
        {
          "internalType": "address",
          "name": "voter",
          "type": "address"
        },
        {
          "internalType": "string",
          "name": "_voterId",
          "type": "string"
        }
      ],
      "name": "createRight",
      "outputs": [
        {
          "internalType": "uint256",
          "name": "",
          "type": "uint256"
        }
      ],
      "stateMutability": "nonpayable",
      "type": "function"
    },
    {
      "inputs": [
        {
          "internalType": "string",
          "name": "name",
          "type": "string"
        }
      ],
      "name": "beCandidate",
      "outputs": [],
      "stateMutability": "nonpayable",
      "type": "function"
    },
    {
      "inputs": [],
      "name": "candidateLength",
      "outputs": [
        {
          "internalType": "uint256",
          "name": "",
          "type": "uint256"
        }
      ],
      "stateMutability": "view",
      "type": "function",
      "constant": true
    },
    {
      "inputs": [
        {
          "internalType": "uint256",
          "name": "i",
          "type": "uint256"
        }
      ],
      "name": "getCandidate",
      "outputs": [
        {
          "internalType": "address",
          "name": "",
          "type": "address"
        }
      ],
      "stateMutability": "view",
      "type": "function",
      "constant": true
    },
    {
      "inputs": [],
      "name": "burnRight",
      "outputs": [],
      "stateMutability": "nonpayable",
      "type": "function"
    },
    {
      "inputs": [
        {
          "internalType": "address",
          "name": "candidate",
          "type": "address"
        }
      ],
      "name": "vote",
      "outputs": [],
      "stateMutability": "nonpayable",
      "type": "function"
    }
  ],
  "bytecode": "0x60806040523480156200001157600080fd5b506040518060400160405280600c81526020017f566f74696e6720526967687400000000000000000000000000000000000000008152506040518060400160405280600481526020017f564f544500000000000000000000000000000000000000000000000000000000815250816000908051906020019062000096929190620000f9565b508060019080519060200190620000af929190620000f9565b50505033600860006101000a81548173ffffffffffffffffffffffffffffffffffffffff021916908373ffffffffffffffffffffffffffffffffffffffff1602179055506200020e565b8280546200010790620001a9565b90600052602060002090601f0160209004810192826200012b576000855562000177565b82601f106200014657805160ff191683800117855562000177565b8280016001018555821562000177579182015b828111156200017657825182559160200191906001019062000159565b5b5090506200018691906200018a565b5090565b5b80821115620001a55760008160009055506001016200018b565b5090565b60006002820490506001821680620001c257607f821691505b60208210811415620001d957620001d8620001df565b5b50919050565b7f4e487b7100000000000000000000000000000000000000000000000000000000600052602260045260246000fd5b613af8806200021e6000396000f3fe608060405234801561001057600080fd5b50600436106101585760003560e01c80636352211e116100c3578063b88d4fde1161007c578063b88d4fde146103fd578063bd23cf4814610419578063c87b56dd14610435578063c9226c0a14610465578063e985e9c514610483578063f60ef15f146104b357610158565b80636352211e1461033d5780636dd7d8ea1461036d5780636e87262d1461038957806370a082311461039357806395d89b41146103c3578063a22cb465146103e157610158565b80633477ee2e116101155780633477ee2e1461023157806335b8e820146102615780633a91f92e1461029157806342842e0e146102c15780634e897592146102dd578063522f71c71461030d57610158565b806301ffc9a71461015d57806306fdde031461018d578063081812fc146101ab578063095ea7b3146101db578063180cb47f146101f757806323b872dd14610215575b600080fd5b610177600480360381019061017291906127de565b6104e3565b6040516101849190612e35565b60405180910390f35b6101956105c5565b6040516101a29190612e50565b60405180910390f35b6101c560048036038101906101c09190612881565b610657565b6040516101d29190612dce565b60405180910390f35b6101f560048036038101906101f0919061279e565b6106dc565b005b6101ff6107f4565b60405161020c9190612dce565b60405180910390f35b61022f600480360381019061022a919061262c565b61081a565b005b61024b60048036038101906102469190612881565b61087a565b6040516102589190612dce565b60405180910390f35b61027b60048036038101906102769190612881565b6108b9565b6040516102889190612dce565b60405180910390f35b6102ab60048036038101906102a691906125bf565b610901565b6040516102b89190612e50565b60405180910390f35b6102db60048036038101906102d6919061262c565b6109a1565b005b6102f760048036038101906102f291906125bf565b6109c1565b6040516103049190612e50565b60405180910390f35b61032760048036038101906103229190612742565b610a61565b60405161033491906130f2565b60405180910390f35b61035760048036038101906103529190612881565b610d2c565b6040516103649190612dce565b60405180910390f35b610387600480360381019061038291906125bf565b610dde565b005b610391610f48565b005b6103ad60048036038101906103a891906125bf565b611007565b6040516103ba91906130f2565b60405180910390f35b6103cb6110bf565b6040516103d89190612e50565b60405180910390f35b6103fb60048036038101906103f69190612702565b611151565b005b6104176004803603810190610412919061267f565b6112d2565b005b610433600480360381019061042e9190612838565b611334565b005b61044f600480360381019061044a9190612881565b61148b565b60405161045c9190612e50565b60405180910390f35b61046d6115dd565b60405161047a91906130f2565b60405180910390f35b61049d600480360381019061049891906125ec565b6115ea565b6040516104aa9190612e35565b60405180910390f35b6104cd60048036038101906104c89190612838565b61167e565b6040516104da9190612e35565b60405180910390f35b60007f80ac58cd000000000000000000000000000000000000000000000000000000007bffffffffffffffffffffffffffffffffffffffffffffffffffffffff1916827bffffffffffffffffffffffffffffffffffffffffffffffffffffffff191614806105ae57507f5b5e139f000000000000000000000000000000000000000000000000000000007bffffffffffffffffffffffffffffffffffffffffffffffffffffffff1916827bffffffffffffffffffffffffffffffffffffffffffffffffffffffff1916145b806105be57506105bd826116b4565b5b9050919050565b6060600080546105d49061337d565b80601f01602080910402602001604051908101604052809291908181526020018280546106009061337d565b801561064d5780601f106106225761010080835404028352916020019161064d565b820191906000526020600020905b81548152906001019060200180831161063057829003601f168201915b5050505050905090565b60006106628261171e565b6106a1576040517f08c379a000000000000000000000000000000000000000000000000000000000815260040161069890613032565b60405180910390fd5b6004600083815260200190815260200160002060009054906101000a900473ffffffffffffffffffffffffffffffffffffffff169050919050565b60006106e782610d2c565b90508073ffffffffffffffffffffffffffffffffffffffff168373ffffffffffffffffffffffffffffffffffffffff161415610758576040517f08c379a000000000000000000000000000000000000000000000000000000000815260040161074f906130b2565b60405180910390fd5b8073ffffffffffffffffffffffffffffffffffffffff1661077761178a565b73ffffffffffffffffffffffffffffffffffffffff1614806107a657506107a5816107a061178a565b6115ea565b5b6107e5576040517f08c379a00000000000000000000000000000000000000000000000000000000081526004016107dc90612f52565b60405180910390fd5b6107ef8383611792565b505050565b600860009054906101000a900473ffffffffffffffffffffffffffffffffffffffff1681565b61082b61082561178a565b8261184b565b61086a576040517f08c379a0000000000000000000000000000000000000000000000000000000008152600401610861906130d2565b60405180910390fd5b610875838383611929565b505050565b6009818154811061088a57600080fd5b906000526020600020016000915054906101000a900473ffffffffffffffffffffffffffffffffffffffff1681565b6000600982815481106108cf576108ce6134e7565b5b9060005260206000200160009054906101000a900473ffffffffffffffffffffffffffffffffffffffff169050919050565b600a60205280600052604060002060009150905080546109209061337d565b80601f016020809104026020016040519081016040528092919081815260200182805461094c9061337d565b80156109995780601f1061096e57610100808354040283529160200191610999565b820191906000526020600020905b81548152906001019060200180831161097c57829003601f168201915b505050505081565b6109bc838383604051806020016040528060008152506112d2565b505050565b600c60205280600052604060002060009150905080546109e09061337d565b80601f0160208091040260200160405190810160405280929190818152602001828054610a0c9061337d565b8015610a595780601f10610a2e57610100808354040283529160200191610a59565b820191906000526020600020905b815481529060010190602001808311610a3c57829003601f168201915b505050505081565b6000600860009054906101000a900473ffffffffffffffffffffffffffffffffffffffff1673ffffffffffffffffffffffffffffffffffffffff163373ffffffffffffffffffffffffffffffffffffffff1614610af3576040517f08c379a0000000000000000000000000000000000000000000000000000000008152600401610aea90613092565b60405180910390fd5b60003073ffffffffffffffffffffffffffffffffffffffff166370a08231856040518263ffffffff1660e01b8152600401610b2e9190612dce565b60206040518083038186803b158015610b4657600080fd5b505afa158015610b5a573d6000803e3d6000fd5b505050506040513d601f19601f82011682018060405250810190610b7e91906128ae565b14610bbe576040517f08c379a0000000000000000000000000000000000000000000000000000000008152600401610bb590612f72565b60405180910390fd5b60011515600b83604051610bd29190612d7c565b908152602001604051809103902060009054906101000a900460ff1615151415610c31576040517f08c379a0000000000000000000000000000000000000000000000000000000008152600401610c2890612e92565b60405180910390fd5b610c3b6007611b85565b6000610c476007611b9b565b9050610c538482611ba9565b6001600b84604051610c659190612d7c565b908152602001604051809103902060006101000a81548160ff02191690831515021790555082600c60008673ffffffffffffffffffffffffffffffffffffffff1673ffffffffffffffffffffffffffffffffffffffff1681526020019081526020016000209080519060200190610cdd92919061237e565b5080600d60008673ffffffffffffffffffffffffffffffffffffffff1673ffffffffffffffffffffffffffffffffffffffff168152602001908152602001600020819055508091505092915050565b6000806002600084815260200190815260200160002060009054906101000a900473ffffffffffffffffffffffffffffffffffffffff169050600073ffffffffffffffffffffffffffffffffffffffff168173ffffffffffffffffffffffffffffffffffffffff161415610dd5576040517f08c379a0000000000000000000000000000000000000000000000000000000008152600401610dcc90612fb2565b60405180910390fd5b80915050919050565b60011515600b600c60003373ffffffffffffffffffffffffffffffffffffffff1673ffffffffffffffffffffffffffffffffffffffff168152602001908152602001600020604051610e309190612db7565b908152602001604051809103902060009054906101000a900460ff16151514610e8e576040517f08c379a0000000000000000000000000000000000000000000000000000000008152600401610e8590612e72565b60405180910390fd5b610ed83382600d60003373ffffffffffffffffffffffffffffffffffffffff1673ffffffffffffffffffffffffffffffffffffffff168152602001908152602001600020546109a1565b60001515600b600c60003373ffffffffffffffffffffffffffffffffffffffff1673ffffffffffffffffffffffffffffffffffffffff168152602001908152602001600020604051610f2a9190612db7565b908152602001604051809103902060009054906101000a9050505050565b610f90600d60003373ffffffffffffffffffffffffffffffffffffffff1673ffffffffffffffffffffffffffffffffffffffff16815260200190815260200160002054611bc7565b6000600b600c60003373ffffffffffffffffffffffffffffffffffffffff1673ffffffffffffffffffffffffffffffffffffffff168152602001908152602001600020604051610fe09190612db7565b908152602001604051809103902060006101000a81548160ff021916908315150217905550565b60008073ffffffffffffffffffffffffffffffffffffffff168273ffffffffffffffffffffffffffffffffffffffff161415611078576040517f08c379a000000000000000000000000000000000000000000000000000000000815260040161106f90612f92565b60405180910390fd5b600360008373ffffffffffffffffffffffffffffffffffffffff1673ffffffffffffffffffffffffffffffffffffffff168152602001908152602001600020549050919050565b6060600180546110ce9061337d565b80601f01602080910402602001604051908101604052809291908181526020018280546110fa9061337d565b80156111475780601f1061111c57610100808354040283529160200191611147565b820191906000526020600020905b81548152906001019060200180831161112a57829003601f168201915b5050505050905090565b61115961178a565b73ffffffffffffffffffffffffffffffffffffffff168273ffffffffffffffffffffffffffffffffffffffff1614156111c7576040517f08c379a00000000000000000000000000000000000000000000000000000000081526004016111be90612f12565b60405180910390fd5b80600560006111d461178a565b73ffffffffffffffffffffffffffffffffffffffff1673ffffffffffffffffffffffffffffffffffffffff16815260200190815260200160002060008473ffffffffffffffffffffffffffffffffffffffff1673ffffffffffffffffffffffffffffffffffffffff16815260200190815260200160002060006101000a81548160ff0219169083151502179055508173ffffffffffffffffffffffffffffffffffffffff1661128161178a565b73ffffffffffffffffffffffffffffffffffffffff167f17307eab39ab6107e8899845ad3d59bd9653f200f220920489ca2b5937696c31836040516112c69190612e35565b60405180910390a35050565b6112e36112dd61178a565b8361184b565b611322576040517f08c379a0000000000000000000000000000000000000000000000000000000008152600401611319906130d2565b60405180910390fd5b61132e84848484611c1a565b50505050565b8080519060200120600a60003373ffffffffffffffffffffffffffffffffffffffff1673ffffffffffffffffffffffffffffffffffffffff1681526020019081526020016000206040516113889190612d65565b604051809103902014156113d1576040517f08c379a00000000000000000000000000000000000000000000000000000000081526004016113c890612fd2565b60405180910390fd5b6009339080600181540180825580915050600190039060005260206000200160009091909190916101000a81548173ffffffffffffffffffffffffffffffffffffffff021916908373ffffffffffffffffffffffffffffffffffffffff16021790555080600a60003373ffffffffffffffffffffffffffffffffffffffff1673ffffffffffffffffffffffffffffffffffffffff168152602001908152602001600020908051906020019061148792919061237e565b5050565b60606114968261171e565b6114d5576040517f08c379a00000000000000000000000000000000000000000000000000000000081526004016114cc90613012565b60405180910390fd5b60006006600084815260200190815260200160002080546114f59061337d565b80601f01602080910402602001604051908101604052809291908181526020018280546115219061337d565b801561156e5780601f106115435761010080835404028352916020019161156e565b820191906000526020600020905b81548152906001019060200180831161155157829003601f168201915b50505050509050600061157f611c76565b90506000815114156115955781925050506115d8565b6000825111156115ca5780826040516020016115b2929190612d93565b604051602081830303815290604052925050506115d8565b6115d384611c8d565b925050505b919050565b6000600980549050905090565b6000600560008473ffffffffffffffffffffffffffffffffffffffff1673ffffffffffffffffffffffffffffffffffffffff16815260200190815260200160002060008373ffffffffffffffffffffffffffffffffffffffff1673ffffffffffffffffffffffffffffffffffffffff16815260200190815260200160002060009054906101000a900460ff16905092915050565b600b818051602081018201805184825260208301602085012081835280955050505050506000915054906101000a900460ff1681565b60007f01ffc9a7000000000000000000000000000000000000000000000000000000007bffffffffffffffffffffffffffffffffffffffffffffffffffffffff1916827bffffffffffffffffffffffffffffffffffffffffffffffffffffffff1916149050919050565b60008073ffffffffffffffffffffffffffffffffffffffff166002600084815260200190815260200160002060009054906101000a900473ffffffffffffffffffffffffffffffffffffffff1673ffffffffffffffffffffffffffffffffffffffff1614159050919050565b600033905090565b816004600083815260200190815260200160002060006101000a81548173ffffffffffffffffffffffffffffffffffffffff021916908373ffffffffffffffffffffffffffffffffffffffff160217905550808273ffffffffffffffffffffffffffffffffffffffff1661180583610d2c565b73ffffffffffffffffffffffffffffffffffffffff167f8c5be1e5ebec7d5bd14f71427d1e84f3dd0314c0f7b2291e5b200ac8c7c3b92560405160405180910390a45050565b60006118568261171e565b611895576040517f08c379a000000000000000000000000000000000000000000000000000000000815260040161188c90612f32565b60405180910390fd5b60006118a083610d2c565b90508073ffffffffffffffffffffffffffffffffffffffff168473ffffffffffffffffffffffffffffffffffffffff16148061190f57508373ffffffffffffffffffffffffffffffffffffffff166118f784610657565b73ffffffffffffffffffffffffffffffffffffffff16145b80611920575061191f81856115ea565b5b91505092915050565b8273ffffffffffffffffffffffffffffffffffffffff1661194982610d2c565b73ffffffffffffffffffffffffffffffffffffffff161461199f576040517f08c379a000000000000000000000000000000000000000000000000000000000815260040161199690613052565b60405180910390fd5b600073ffffffffffffffffffffffffffffffffffffffff168273ffffffffffffffffffffffffffffffffffffffff161415611a0f576040517f08c379a0000000000000000000000000000000000000000000000000000000008152600401611a0690612ef2565b60405180910390fd5b611a1a838383611d34565b611a25600082611792565b6001600360008573ffffffffffffffffffffffffffffffffffffffff1673ffffffffffffffffffffffffffffffffffffffff1681526020019081526020016000206000828254611a759190613293565b925050819055506001600360008473ffffffffffffffffffffffffffffffffffffffff1673ffffffffffffffffffffffffffffffffffffffff1681526020019081526020016000206000828254611acc919061320c565b92505081905550816002600083815260200190815260200160002060006101000a81548173ffffffffffffffffffffffffffffffffffffffff021916908373ffffffffffffffffffffffffffffffffffffffff160217905550808273ffffffffffffffffffffffffffffffffffffffff168473ffffffffffffffffffffffffffffffffffffffff167fddf252ad1be2c89b69c2b068fc378daa952ba7f163c4a11628f55a4df523b3ef60405160405180910390a4505050565b6001816000016000828254019250508190555050565b600081600001549050919050565b611bc3828260405180602001604052806000815250611d39565b5050565b611bd081611d94565b6000600660008381526020019081526020016000208054611bf09061337d565b905014611c1757600660008281526020019081526020016000206000611c169190612404565b5b50565b611c25848484611929565b611c3184848484611ea5565b611c70576040517f08c379a0000000000000000000000000000000000000000000000000000000008152600401611c6790612eb2565b60405180910390fd5b50505050565b606060405180602001604052806000815250905090565b6060611c988261171e565b611cd7576040517f08c379a0000000000000000000000000000000000000000000000000000000008152600401611cce90613072565b60405180910390fd5b6000611ce1611c76565b90506000815111611d015760405180602001604052806000815250611d2c565b80611d0b8461203c565b604051602001611d1c929190612d93565b6040516020818303038152906040525b915050919050565b505050565b611d43838361219d565b611d506000848484611ea5565b611d8f576040517f08c379a0000000000000000000000000000000000000000000000000000000008152600401611d8690612eb2565b60405180910390fd5b505050565b6000611d9f82610d2c565b9050611dad81600084611d34565b611db8600083611792565b6001600360008373ffffffffffffffffffffffffffffffffffffffff1673ffffffffffffffffffffffffffffffffffffffff1681526020019081526020016000206000828254611e089190613293565b925050819055506002600083815260200190815260200160002060006101000a81549073ffffffffffffffffffffffffffffffffffffffff021916905581600073ffffffffffffffffffffffffffffffffffffffff168273ffffffffffffffffffffffffffffffffffffffff167fddf252ad1be2c89b69c2b068fc378daa952ba7f163c4a11628f55a4df523b3ef60405160405180910390a45050565b6000611ec68473ffffffffffffffffffffffffffffffffffffffff1661236b565b1561202f578373ffffffffffffffffffffffffffffffffffffffff1663150b7a02611eef61178a565b8786866040518563ffffffff1660e01b8152600401611f119493929190612de9565b602060405180830381600087803b158015611f2b57600080fd5b505af1925050508015611f5c57506040513d601f19601f82011682018060405250810190611f59919061280b565b60015b611fdf573d8060008114611f8c576040519150601f19603f3d011682016040523d82523d6000602084013e611f91565b606091505b50600081511415611fd7576040517f08c379a0000000000000000000000000000000000000000000000000000000008152600401611fce90612eb2565b60405180910390fd5b805181602001fd5b63150b7a0260e01b7bffffffffffffffffffffffffffffffffffffffffffffffffffffffff1916817bffffffffffffffffffffffffffffffffffffffffffffffffffffffff191614915050612034565b600190505b949350505050565b60606000821415612084576040518060400160405280600181526020017f30000000000000000000000000000000000000000000000000000000000000008152509050612198565b600082905060005b600082146120b657808061209f906133e0565b915050600a826120af9190613262565b915061208c565b60008167ffffffffffffffff8111156120d2576120d1613516565b5b6040519080825280601f01601f1916602001820160405280156121045781602001600182028036833780820191505090505b5090505b600085146121915760018261211d9190613293565b9150600a8561212c9190613429565b6030612138919061320c565b60f81b81838151811061214e5761214d6134e7565b5b60200101907effffffffffffffffffffffffffffffffffffffffffffffffffffffffffffff1916908160001a905350600a8561218a9190613262565b9450612108565b8093505050505b919050565b600073ffffffffffffffffffffffffffffffffffffffff168273ffffffffffffffffffffffffffffffffffffffff16141561220d576040517f08c379a000000000000000000000000000000000000000000000000000000000815260040161220490612ff2565b60405180910390fd5b6122168161171e565b15612256576040517f08c379a000000000000000000000000000000000000000000000000000000000815260040161224d90612ed2565b60405180910390fd5b61226260008383611d34565b6001600360008473ffffffffffffffffffffffffffffffffffffffff1673ffffffffffffffffffffffffffffffffffffffff16815260200190815260200160002060008282546122b2919061320c565b92505081905550816002600083815260200190815260200160002060006101000a81548173ffffffffffffffffffffffffffffffffffffffff021916908373ffffffffffffffffffffffffffffffffffffffff160217905550808273ffffffffffffffffffffffffffffffffffffffff16600073ffffffffffffffffffffffffffffffffffffffff167fddf252ad1be2c89b69c2b068fc378daa952ba7f163c4a11628f55a4df523b3ef60405160405180910390a45050565b600080823b905060008111915050919050565b82805461238a9061337d565b90600052602060002090601f0160209004810192826123ac57600085556123f3565b82601f106123c557805160ff19168380011785556123f3565b828001600101855582156123f3579182015b828111156123f25782518255916020019190600101906123d7565b5b5090506124009190612444565b5090565b5080546124109061337d565b6000825580601f106124225750612441565b601f0160209004906000526020600020908101906124409190612444565b5b50565b5b8082111561245d576000816000905550600101612445565b5090565b600061247461246f84613132565b61310d565b9050828152602081018484840111156124905761248f61354a565b5b61249b84828561333b565b509392505050565b60006124b66124b184613163565b61310d565b9050828152602081018484840111156124d2576124d161354a565b5b6124dd84828561333b565b509392505050565b6000813590506124f481613a66565b92915050565b60008135905061250981613a7d565b92915050565b60008135905061251e81613a94565b92915050565b60008151905061253381613a94565b92915050565b600082601f83011261254e5761254d613545565b5b813561255e848260208601612461565b91505092915050565b600082601f83011261257c5761257b613545565b5b813561258c8482602086016124a3565b91505092915050565b6000813590506125a481613aab565b92915050565b6000815190506125b981613aab565b92915050565b6000602082840312156125d5576125d4613554565b5b60006125e3848285016124e5565b91505092915050565b6000806040838503121561260357612602613554565b5b6000612611858286016124e5565b9250506020612622858286016124e5565b9150509250929050565b60008060006060848603121561264557612644613554565b5b6000612653868287016124e5565b9350506020612664868287016124e5565b925050604061267586828701612595565b9150509250925092565b6000806000806080858703121561269957612698613554565b5b60006126a7878288016124e5565b94505060206126b8878288016124e5565b93505060406126c987828801612595565b925050606085013567ffffffffffffffff8111156126ea576126e961354f565b5b6126f687828801612539565b91505092959194509250565b6000806040838503121561271957612718613554565b5b6000612727858286016124e5565b9250506020612738858286016124fa565b9150509250929050565b6000806040838503121561275957612758613554565b5b6000612767858286016124e5565b925050602083013567ffffffffffffffff8111156127885761278761354f565b5b61279485828601612567565b9150509250929050565b600080604083850312156127b5576127b4613554565b5b60006127c3858286016124e5565b92505060206127d485828601612595565b9150509250929050565b6000602082840312156127f4576127f3613554565b5b60006128028482850161250f565b91505092915050565b60006020828403121561282157612820613554565b5b600061282f84828501612524565b91505092915050565b60006020828403121561284e5761284d613554565b5b600082013567ffffffffffffffff81111561286c5761286b61354f565b5b61287884828501612567565b91505092915050565b60006020828403121561289757612896613554565b5b60006128a584828501612595565b91505092915050565b6000602082840312156128c4576128c3613554565b5b60006128d2848285016125aa565b91505092915050565b6128e4816132c7565b82525050565b6128f3816132d9565b82525050565b6000612904826131be565b61290e81856131d4565b935061291e81856020860161334a565b61292781613559565b840191505092915050565b6000815461293f8161337d565b61294981866131e5565b945060018216600081146129645760018114612975576129a8565b60ff198316865281860193506129a8565b61297e85613194565b60005b838110156129a057815481890152600182019150602081019050612981565b838801955050505b50505092915050565b60006129bc826131c9565b6129c681856131f0565b93506129d681856020860161334a565b6129df81613559565b840191505092915050565b60006129f5826131c9565b6129ff8185613201565b9350612a0f81856020860161334a565b80840191505092915050565b60008154612a288161337d565b612a328186613201565b94506001821660008114612a4d5760018114612a5e57612a91565b60ff19831686528186019350612a91565b612a67856131a9565b60005b83811015612a8957815481890152600182019150602081019050612a6a565b838801955050505b50505092915050565b6000612aa76018836131f0565b9150612ab28261356a565b602082019050919050565b6000612aca601e836131f0565b9150612ad582613593565b602082019050919050565b6000612aed6032836131f0565b9150612af8826135bc565b604082019050919050565b6000612b10601c836131f0565b9150612b1b8261360b565b602082019050919050565b6000612b336024836131f0565b9150612b3e82613634565b604082019050919050565b6000612b566019836131f0565b9150612b6182613683565b602082019050919050565b6000612b79602c836131f0565b9150612b84826136ac565b604082019050919050565b6000612b9c6038836131f0565b9150612ba7826136fb565b604082019050919050565b6000612bbf601c836131f0565b9150612bca8261374a565b602082019050919050565b6000612be2602a836131f0565b9150612bed82613773565b604082019050919050565b6000612c056029836131f0565b9150612c10826137c2565b604082019050919050565b6000612c286011836131f0565b9150612c3382613811565b602082019050919050565b6000612c4b6020836131f0565b9150612c568261383a565b602082019050919050565b6000612c6e6031836131f0565b9150612c7982613863565b604082019050919050565b6000612c91602c836131f0565b9150612c9c826138b2565b604082019050919050565b6000612cb46029836131f0565b9150612cbf82613901565b604082019050919050565b6000612cd7602f836131f0565b9150612ce282613950565b604082019050919050565b6000612cfa601a836131f0565b9150612d058261399f565b602082019050919050565b6000612d1d6021836131f0565b9150612d28826139c8565b604082019050919050565b6000612d406031836131f0565b9150612d4b82613a17565b604082019050919050565b612d5f81613331565b82525050565b6000612d718284612932565b915081905092915050565b6000612d8882846129ea565b915081905092915050565b6000612d9f82856129ea565b9150612dab82846129ea565b91508190509392505050565b6000612dc38284612a1b565b915081905092915050565b6000602082019050612de360008301846128db565b92915050565b6000608082019050612dfe60008301876128db565b612e0b60208301866128db565b612e186040830185612d56565b8181036060830152612e2a81846128f9565b905095945050505050565b6000602082019050612e4a60008301846128ea565b92915050565b60006020820190508181036000830152612e6a81846129b1565b905092915050565b60006020820190508181036000830152612e8b81612a9a565b9050919050565b60006020820190508181036000830152612eab81612abd565b9050919050565b60006020820190508181036000830152612ecb81612ae0565b9050919050565b60006020820190508181036000830152612eeb81612b03565b9050919050565b60006020820190508181036000830152612f0b81612b26565b9050919050565b60006020820190508181036000830152612f2b81612b49565b9050919050565b60006020820190508181036000830152612f4b81612b6c565b9050919050565b60006020820190508181036000830152612f6b81612b8f565b9050919050565b60006020820190508181036000830152612f8b81612bb2565b9050919050565b60006020820190508181036000830152612fab81612bd5565b9050919050565b60006020820190508181036000830152612fcb81612bf8565b9050919050565b60006020820190508181036000830152612feb81612c1b565b9050919050565b6000602082019050818103600083015261300b81612c3e565b9050919050565b6000602082019050818103600083015261302b81612c61565b9050919050565b6000602082019050818103600083015261304b81612c84565b9050919050565b6000602082019050818103600083015261306b81612ca7565b9050919050565b6000602082019050818103600083015261308b81612cca565b9050919050565b600060208201905081810360008301526130ab81612ced565b9050919050565b600060208201905081810360008301526130cb81612d10565b9050919050565b600060208201905081810360008301526130eb81612d33565b9050919050565b60006020820190506131076000830184612d56565b92915050565b6000613117613128565b905061312382826133af565b919050565b6000604051905090565b600067ffffffffffffffff82111561314d5761314c613516565b5b61315682613559565b9050602081019050919050565b600067ffffffffffffffff82111561317e5761317d613516565b5b61318782613559565b9050602081019050919050565b60008190508160005260206000209050919050565b60008190508160005260206000209050919050565b600081519050919050565b600081519050919050565b600082825260208201905092915050565b600081905092915050565b600082825260208201905092915050565b600081905092915050565b600061321782613331565b915061322283613331565b9250827fffffffffffffffffffffffffffffffffffffffffffffffffffffffffffffffff038211156132575761325661345a565b5b828201905092915050565b600061326d82613331565b915061327883613331565b92508261328857613287613489565b5b828204905092915050565b600061329e82613331565b91506132a983613331565b9250828210156132bc576132bb61345a565b5b828203905092915050565b60006132d282613311565b9050919050565b60008115159050919050565b60007fffffffff0000000000000000000000000000000000000000000000000000000082169050919050565b600073ffffffffffffffffffffffffffffffffffffffff82169050919050565b6000819050919050565b82818337600083830152505050565b60005b8381101561336857808201518184015260208101905061334d565b83811115613377576000848401525b50505050565b6000600282049050600182168061339557607f821691505b602082108114156133a9576133a86134b8565b5b50919050565b6133b882613559565b810181811067ffffffffffffffff821117156133d7576133d6613516565b5b80604052505050565b60006133eb82613331565b91507fffffffffffffffffffffffffffffffffffffffffffffffffffffffffffffffff82141561341e5761341d61345a565b5b600182019050919050565b600061343482613331565b915061343f83613331565b92508261344f5761344e613489565b5b828206905092915050565b7f4e487b7100000000000000000000000000000000000000000000000000000000600052601160045260246000fd5b7f4e487b7100000000000000000000000000000000000000000000000000000000600052601260045260246000fd5b7f4e487b7100000000000000000000000000000000000000000000000000000000600052602260045260246000fd5b7f4e487b7100000000000000000000000000000000000000000000000000000000600052603260045260246000fd5b7f4e487b7100000000000000000000000000000000000000000000000000000000600052604160045260246000fd5b600080fd5b600080fd5b600080fd5b600080fd5b6000601f19601f8301169050919050565b7f766f746572206e65656420746f20686176652072696768740000000000000000600082015250565b7f63616e6e6f74206d696e7420746f6b656e20776974682073616d652069640000600082015250565b7f4552433732313a207472616e7366657220746f206e6f6e20455243373231526560008201527f63656976657220696d706c656d656e7465720000000000000000000000000000602082015250565b7f4552433732313a20746f6b656e20616c7265616479206d696e74656400000000600082015250565b7f4552433732313a207472616e7366657220746f20746865207a65726f2061646460008201527f7265737300000000000000000000000000000000000000000000000000000000602082015250565b7f4552433732313a20617070726f766520746f2063616c6c657200000000000000600082015250565b7f4552433732313a206f70657261746f7220717565727920666f72206e6f6e657860008201527f697374656e7420746f6b656e0000000000000000000000000000000000000000602082015250565b7f4552433732313a20617070726f76652063616c6c6572206973206e6f74206f7760008201527f6e6572206e6f7220617070726f76656420666f7220616c6c0000000000000000602082015250565b7f63616e206d696e74207269676874206f6e6c79206f6e652074696d6500000000600082015250565b7f4552433732313a2062616c616e636520717565727920666f7220746865207a6560008201527f726f206164647265737300000000000000000000000000000000000000000000602082015250565b7f4552433732313a206f776e657220717565727920666f72206e6f6e657869737460008201527f656e7420746f6b656e0000000000000000000000000000000000000000000000602082015250565b7f796f75206172652063616e646964617465000000000000000000000000000000600082015250565b7f4552433732313a206d696e7420746f20746865207a65726f2061646472657373600082015250565b7f45524337323155524953746f726167653a2055524920717565727920666f722060008201527f6e6f6e6578697374656e7420746f6b656e000000000000000000000000000000602082015250565b7f4552433732313a20617070726f76656420717565727920666f72206e6f6e657860008201527f697374656e7420746f6b656e0000000000000000000000000000000000000000602082015250565b7f4552433732313a207472616e73666572206f6620746f6b656e2074686174206960008201527f73206e6f74206f776e0000000000000000000000000000000000000000000000602082015250565b7f4552433732314d657461646174613a2055524920717565727920666f72206e6f60008201527f6e6578697374656e7420746f6b656e0000000000000000000000000000000000602082015250565b7f6f6e6c7920676f7665726d656e742063616e20646f2074686973000000000000600082015250565b7f4552433732313a20617070726f76616c20746f2063757272656e74206f776e6560008201527f7200000000000000000000000000000000000000000000000000000000000000602082015250565b7f4552433732313a207472616e736665722063616c6c6572206973206e6f74206f60008201527f776e6572206e6f7220617070726f766564000000000000000000000000000000602082015250565b613a6f816132c7565b8114613a7a57600080fd5b50565b613a86816132d9565b8114613a9157600080fd5b50565b613a9d816132e5565b8114613aa857600080fd5b50565b613ab481613331565b8114613abf57600080fd5b5056fea2646970667358221220a2f08cc9959db958441ae10676ba8a2f9f01a873169374f6cdd5e8918f90c6e364736f6c63430008060033",
  "immutableReferences": {},
  "source": "pragma solidity ^0.8.0;\nimport \"@openzeppelin/contracts/token/ERC721/ERC721.sol\";\nimport \"@openzeppelin/contracts/token/ERC721/extensions/ERC721URIStorage.sol\";\nimport \"@openzeppelin/contracts/utils/Counters.sol\";\n\ncontract Ballot is ERC721URIStorage {\n    using Counters for Counters.Counter;\n    Counters.Counter private _rightIds;\n\n    address public GOV;\n\n    address[] public candidates;\n\n    mapping(address => string) public candidateName;\n    mapping(string => bool) public voterWithRight;\n    mapping(address => string) public voterId;\n    mapping(address => uint256) private _rightId;\n\n    constructor() public ERC721(\"Voting Right\", \"VOTE\") {\n        GOV = msg.sender;\n    }\n\n    modifier onlyGov() {\n        require(msg.sender == GOV, \"only goverment can do this\");\n        _;\n    }\n\n    function createRight(address voter, string memory _voterId)\n        public\n        onlyGov\n        returns (uint256)\n    {\n        require(this.balanceOf(voter) == 0, \"can mint right only one time\");\n        require(\n            voterWithRight[_voterId] != true,\n            \"cannot mint token with same id\"\n        );\n\n        _rightIds.increment();\n        uint256 rightIds = _rightIds.current();\n        _safeMint(voter, rightIds);\n        voterWithRight[_voterId] = true;\n        voterId[voter] = _voterId;\n        _rightId[voter] = rightIds;\n        return rightIds;\n    }\n\n    function beCandidate(string memory name) public {\n        require(\n            keccak256(bytes(candidateName[msg.sender])) !=\n                keccak256(bytes(name)),\n            \"you are candidate\"\n        );\n        candidates.push(msg.sender);\n        candidateName[msg.sender] = name;\n    }\n\n    function candidateLength() public view returns (uint256) {\n        return candidates.length;\n    }\n\n    function getCandidate(uint256 i) public view returns (address) {\n        return candidates[i];\n    }\n\n    function burnRight() public {\n        _burn(_rightId[msg.sender]);\n        voterWithRight[voterId[msg.sender]] = false;\n    }\n\n    function vote(address candidate) public {\n        require(\n            voterWithRight[voterId[msg.sender]] == true,\n            \"voter need to have right\"\n        );\n        safeTransferFrom(msg.sender, candidate, _rightId[msg.sender]);\n        voterWithRight[voterId[msg.sender]] == false;\n    }\n}\n",
  "sourcePath": "/Users/msp5382/Documents/Work/dapp-for-fun/voting/src/contracts/Ballot.sol",
  "compiler": {
    "name": "solc",
    "version": "0.8.6+commit.11564f7e.Emscripten.clang"
  },
  "schemaVersion": "3.4.1",
  "updatedAt": "2021-06-22T18:33:52.017Z",
  "networkType": "ethereum",
  "devdoc": {
    "kind": "dev",
    "methods": {
      "approve(address,uint256)": {
        "details": "See {IERC721-approve}."
      },
      "balanceOf(address)": {
        "details": "See {IERC721-balanceOf}."
      },
      "getApproved(uint256)": {
        "details": "See {IERC721-getApproved}."
      },
      "isApprovedForAll(address,address)": {
        "details": "See {IERC721-isApprovedForAll}."
      },
      "name()": {
        "details": "See {IERC721Metadata-name}."
      },
      "ownerOf(uint256)": {
        "details": "See {IERC721-ownerOf}."
      },
      "safeTransferFrom(address,address,uint256)": {
        "details": "See {IERC721-safeTransferFrom}."
      },
      "safeTransferFrom(address,address,uint256,bytes)": {
        "details": "See {IERC721-safeTransferFrom}."
      },
      "setApprovalForAll(address,bool)": {
        "details": "See {IERC721-setApprovalForAll}."
      },
      "supportsInterface(bytes4)": {
        "details": "See {IERC165-supportsInterface}."
      },
      "symbol()": {
        "details": "See {IERC721Metadata-symbol}."
      },
      "tokenURI(uint256)": {
        "details": "See {IERC721Metadata-tokenURI}."
      },
      "transferFrom(address,address,uint256)": {
        "details": "See {IERC721-transferFrom}."
      }
    },
    "version": 1
  },
  "userdoc": {
    "kind": "user",
    "methods": {},
    "version": 1
  }
}